:100000001CC0E2C3E1C303C3DFC3DEC3DDC3DCC383
:10001000DBC3DAC3D9C3D8C3D7C3D6C3D5C3D4C30C
:10002000D3C3D2C3D1C3D0C3CFC3CEC3CDC3CCC33C
:10003000CBC3CAC33E003E08800011241FBECFEFD1
:10004000CDBFDFE3DEBFE4E3F0E040E017C0B591F1
:10005000A59135912591059107FD0CC0959185914C
:10006000EF01F92FE82F05900D92A217B307D9F7EA
:10007000FE0104C01D92A217B307E1F7E933F407AC
:0A00800031F7B4D088C3F894FFCF25
:10008A001F93CF93DF9300D000D0CDB7DEB7AC017A
:10009A008031974210F04FE057E29A013695279542
:1000AA003695279536952795A5ECB0E233D3FC0112
:1000BA00F295E295EF70EF27FF70EF279F01ADEC05
:1000CA00BCEC28D3969587959695879596958795AE
:1000DA009C01220F331F880F991F880F991F880FC1
:1000EA00991F820F931F9F01281B390BF901E055B5
:1000FA00F847808189839A01369527953695279501
:10010A00ABE7B4E107D3FC01F695E7959F01ADECA7
:10011A00BCEC00D396958795969587959695879585
:10012A009C01220F331F880F991F880F991F880F70
:10013A00991F820F931F9F01281B390BF901E05564
:10014A00F84780818A839A01E5D2FC01F695E79502
:10015A00F695E795F695E7959F01DCD296958795F2
:10016A0096958795969587959C01220F331F880F40
:10017A00991F880F991F880F991F820F931F9F013C
:10018A00281B390BD901A055B8478C918B83CF0115
:10019A00880F991FEE0FFF1FEE0FFF1FEE0FFF1FB5
:1001AA00E80FF91F4E1B5F0BFA01E055F8478081F3
:1001BA008C83BCD280ECCBD110E009C0E1E0F0E046
:1001CA00EC0FFD1FE10FF11D8081C1D11F5F1430BB
:1001DA00A8F3B5D22496CDBFDEBFDF91CF911F9190
:0201EA00089576
:1001EC0079D180E090E04BDF2FE784E89EE121504D
:1001FC0080409040E1F700C000008091053E8823CC
:10020C00C1F01092053E8091080488232CF0909147
:10021C00073E9F5F9093073E86FD05C08091073E89
:10022C0081508093073E8091073E882314F41092EE
:10023C00073E9091063E8091073E981731F08091D1
:10024C00073E8093063E1092043E8091043E8A3015
:10025C0060F48091073E082E000C990B10DF809102
:10026C00043E8F5F8093043E05C08091003E9091C8
:10027C00013E05DF8091073E24E68202C001112475
:10028C0088519C4F38D26091023E7091033E80E0C1
:10029C0090E0E3D02FE832EC45E75DE38BD220E031
:1002AC0030E040E752E488D280D16093003E7093F6
:1002BC00013E1092023E1092033E87EA91E60197AE
:0802CC00F1F700C0000099CF1A
:1002D4000BC051D240F048D230F021F45F3F19F006
:1002E4005FC2511150C267C2B5D198F39923C9F3C3
:1002F4005523B1F3951B550BBB27AA276217730728
:10030400840738F09F5F5F4F220F331F441FAA1FDB
:10031400A9F333D00E2E3AF0E0E830D0915050409B
:10032400E695001CCAF729D0FE2F27D0660F771F49
:10033400881FBB1F261737074807AB07B0E809F02B
:10034400BB0B802DBF01FF2793585F4F2AF09E3FC0
:10035400510568F025C217C25F3FECF3983EDCF309
:10036400869577956795B795F7959F5FC9F7880F39
:10037400911D9695879597F90895E1E0660F771F8B
:10038400881FBB1F621773078407BA0720F0621B1C
:0E039400730B840BBA0BEE1F88F7E0950895EB
:1003A2000AC0E3D128F0E8D118F0952309F0F9C189
:1003B20003C21124E9C14FD1A0F3959FD1F3950F48
:1003C20050E0551F629FF001729FBB27F00DB11DD7
:1003D200639FAA27F00DB11DAA1F649F6627B00D67
:1003E200A11D661F829F2227B00DA11D621F739F50
:1003F200B00DA11D621F839FA00D611D221F749F5E
:100402003327A00D611D231F849F600D211D822FA4
:10041200762F6A2F11249F5750408AF0E1F08823EB
:100422004AF0EE0FFF1FBB1F661F771F881F9150F8
:100432005040A9F79E3F510570F0B3C1A5C15F3F7F
:10044200ECF3983EDCF3869577956795B795F7952B
:10045200E7959F5FC1F7FE2B880F911D96958795B3
:0404620097F9089569
:10046600E89409C097FB3EF4909580957095619548
:100476007F4F8F4F9F4F9923A9F0F92F96E9BB27FE
:100486009395F695879577956795B795F111F8CF7A
:10049600FAF4BB0F11F460FF1BC06F5F7F4F8F4FE5
:1004A6009F4F16C0882311F096E911C0772321F0DB
:1004B6009EE8872F762F05C0662371F096E8862F73
:1004C60070E060E02AF09A95660F771F881FDAF7CA
:0A04D600880F9695879597F9089511
:1004E0001F93CF93DF9388ED84BF81E080936100F9
:1004F000C0E0D4E090E89A8390E49A8398E09F8BE0
:100500009E8B2F8923602F8B2E8923602E8B14E0E6
:10051000198320E12A8323E02C8BE0E2F4E081833D
:1005200022E0218385832583918380930202E0E08A
:10053000FAE083E1818384ED90E386A397A381E7CA
:1005400092E080A791A789E0808307D178941D83EA
:08055000DF91CF911F91089586
:1005580020E030E019C091E090932604482F50E045
:10056800022E02C0559547950A94E2F740FF04C051
:1005780092E09093250403C092E09093260491E0C2
:10058800909325042F5F3F4F2830310524F3E0E294
:10059800F4E081E0868392E092838583A3ECB9E05E
:0E05A8001197F1F700C000008683918308953B
:1005B60058D088F09F5790F0B92F9927B751A0F0DF
:1005C600D1F0660F771F881F991F1AF0BA95C9F7E1
:1005D60012C0B13081F0D5D0B1E00895D2C0672FF6
:1005E600782F8827B85F39F0B93FCCF38695779591
:1005F6006795B395D9F73EF490958095709561957A
:080606007F4F8F4F9F4F0895B5
:10060E001F920F920FB60F9211248F939F9380918A
:10061E00090484FF0DC08091023E9091033E019625
:10062E008093023E9093033E84E08093070403C0C0
:10063E0081E08093053E8FEF809309049F918F9107
:0A064E000F900FBE0F901F9018953B
:1006580057FD9058440F551F59F05F3F71F047956B
:10066800880F97FB991F61F09F3F79F08795089550
:10067800121613061406551FF2CF4695F1DF08C06F
:10068800161617061806991FF1CF8695710561058C
:040698000894089525
:10069C00A1E21A2EAA1BBB1BFD010DC0AA1FBB1F7A
:1006AC00EE1FFF1FA217B307E407F50720F0A21BEC
:1006BC00B30BE40BF50B661F771F881F991F1A9459
:1006CC0069F760957095809590959B01AC01BD0183
:0406DC00CF010895AD
:1006E000092E0394000C11F4882352F0BB0F40F440
:1006F000BF2B11F460FF04C06F5F7F4F8F4F9F4F80
:0207000008955A
:100702009C01A1E7B2E00AD028EE33E040E050E0DD
:0C071200C4DF2093280A3093290A0895C0
:10071E00A29FB001B39FC001A39F01D0B29F700DE5
:08072E00811D1124911D0895A5
:10073600E0E2F4E083E0858382E0868381E08683DD
:02074600089514
:10074800E0E2F4E091E0968382E0868395838583F6
:02075800089502
:10075A00EDDF80E4FCDEF3DFE9DF8FE8F8DEEFDFD0
:02076A000895F0
:0E076C0000240A9416161706180609060895AA
:0E077A0000240A9412161306140605060895AC
:0E078800E894BB2766277727CB0197F90895E1
:0E079600EC0119D017D0CE0117D0CE0116D02D
:0C07A40097F99F6780E870E060E008951E
:0A07B0003F065B4F666D7D077F6F0B
:0607BA009FEF80EC0895A2
:0407C00089DD8ECF72
:0407C400EEDD8CCF0B
:0207C8001BCC48
:0207CA00089590
:0207CC0008958E
:0207CE0008958C
:0207D0005ADCF1
:00000001FF
