:100000001CC0DBC1DAC194C1D8C1D7C1D6C1D5C12A
:10001000D4C1D3C1D2C1D1C1D0C1CFC1CEC1CDC154
:10002000CCC1CBC1CAC1C9C1C8C1C7C1C6C1C5C184
:10003000C4C1C3C13E003E03800011241FBECFEFE8
:10004000CDBFDFE3DEBFE4E3F0E040E017C0B591F1
:10005000A59135912591059107FD0CC0959185914C
:10006000EF01F92FE82F05900D92A217B307D9F7EA
:10007000FE0104C01D92A217B307E1F7E933F407AC
:0A00800031F7B4D08EC1F894FFCF21
:10008A001F93CF93DF9300D000D0CDB7DEB7AC017A
:10009A008031974210F04FE057E29A013695279542
:1000AA003695279536952795A5ECB0E24ED1FC01F9
:1000BA00F295E295EF70EF27FF70EF279F01ADEC05
:1000CA00BCEC43D196958795969587959695879595
:1000DA009C01220F331F880F991F880F991F880FC1
:1000EA00991F820F931F9F01281B390BF901E055B5
:1000FA00FC47808189839A013695279536952795FD
:10010A00ABE7B4E122D1FC01F695E7959F01ADEC8E
:10011A00BCEC1BD19695879596958795969587956C
:10012A009C01220F331F880F991F880F991F880F70
:10013A00991F820F931F9F01281B390BF901E05564
:10014A00FC4780818A839A0100D1FC01F695E795E4
:10015A00F695E795F695E7959F01F7D096958795D9
:10016A0096958795969587959C01220F331F880F40
:10017A00991F880F991F880F991F820F931F9F013C
:10018A00281B390BD901A055BC478C918B83CF0111
:10019A00880F991FEE0FFF1FEE0FFF1FEE0FFF1FB5
:1001AA00E80FF91F4E1B5F0BFA01E055FC478081EF
:1001BA008C83D7D080EC67D010E009C0E1E0F0E092
:1001CA00EC0FFD1FE10FF11D80815DD01F5F143020
:1001DA00A8F3D0D02496CDBFDEBFDF91CF911F9177
:0201EA00089576
:1001EC0080D080E090E04BDF8091003E882309F1C5
:1001FC002FE58AEE90E0215080409040E1F700C05E
:10020C0000001092003E9091080499232CF08091EC
:10021C00023E8F5F8093023E96FD05C08091023EA8
:10022C0081508093023E8091023E882314F41092F8
:10023C00023E8091023E482F880F550B2091013EC3
:10024C0030E04217530779F0CA0119DF8091023E62
:10025C008093013E2FE784E89EE12150804090403E
:10026C00E1F700C00000C0E0D0E0CE0108DF2FE7CE
:10027C008AE196E0215080409040E1F700C00000F8
:04028C002196F3CFF5
:1002900020E030E019C091E090932604482F50E010
:1002A000022E02C0559547950A94E2F740FF04C01C
:1002B00092E09093250403C092E09093260491E08D
:1002C000909325042F5F3F4F2830310524F3E0E25F
:1002D000F4E081E0868392E092838583A3ECB9E029
:0E02E0001197F1F700C0000086839183089506
:1002EE0088ED84BF81E080936100E0E0F4E090E867
:1002FE00928390E4928398E0978B968B9789936084
:10030E00978B96899360968B94E091839583E0E228
:10031E00F4E0818392E091838583958332D0789443
:02032E00089530
:100330001F920F920FB60F9211248F938FEF80931D
:10034000090481E08093003E8F910F900FBE0F90C3
:040350001F9018954D
:10035400A29FB001B39FC001A39F01D0B29F700DB3
:08036400811D1124911D089573
:10036C00E0E2F4E083E0858382E0868381E08683AB
:02037C000895E2
:10037E00E0E2F4E091E0968382E0868395838583C4
:02038E000895D0
:10039000EDDF80E47DDFF3DFE9DF8FE879DFEFDF9A
:0203A0000895BE
:0E03A200EC010CD00AD0CE010AD0CE0109D059
:0A03B0003F065B4F666D7D077F6F0F
:0203BA0022CE51
:0203BC000895A2
:0203BE000895A0
:0203C00008959E
:0203C20061DEFA
:00000001FF
